:060000000A128A1100291A
:100200002921051813214621851817214621051992
:100210001B21462185191F214621051A232146212C
:10022000081A0914012905181329860A08008518D7
:100230001729860B080005191B29870A080085194C
:100240001F29870B0800051A2329060807078800BD
:100250000800031783168801890183160313051408
:100260008514051585150516860187018801890104
:100270008312031386018501870188018901080023
:100280003230A1004621A10B422908009630A0007F
:06029000A00B4829080044
:04400E00C430FF3F7C
:00000001FF
