:060000000A128A1100291A
:1002000027210518112142218518152142210519A0
:100210001921422185191D214221051A212142213E
:10022000012905181129860A080085181529860B49
:10023000080005191929870A080085191D29870B47
:100240000800051A21290608070788000800031777
:100250008316880189018316031305148514051577
:10026000851505168601870188018312031386010F
:1002700085018701880108003230A1004221A10BCD
:0E0280003E2908009630A000A00B442908007B
:04400E00C430FF3F7C
:00000001FF
