:060000000A128A1100291A
:10020000352105181521522185181B215221051968
:1002100022215221851928215221051A2F215221EC
:10022000081A091409105221012905181529860AEE
:10023000061A860108000F3085181C29860B861BBC
:100240008600080005192229870A071A8701080075
:100250000F3085192929870B871B87000800051A8D
:100260002F2906080707880008000317831688014E
:1002700089018316031305148514051585150516C4
:100280008601870188018901831203138601850194
:1002900087018801890108003230A1005221A10B99
:0E02A0004E2908009630A000A00B542908003B
:04400E00C430FF3F7C
:00000001FF
